03300000        2014277429000135340200005633508                         E.S ADMINISTRAÇÃO DE IMÓVEIS LBANCO SANTANDER                         106022019      001514040                                                                          
03300011R01  030 2014277429000135                    340200005633508     E.S ADMINISTRAÇÃO DE IMÓVEIS L                                                                                0000000006022019                                         
0330001300001P 0134029null3null3  0000000055859512  10317          2511201600000000009375600000 04N06022019125112016000000000000030000000000000000000000000000000000000000000000000000000                         000101500           
0330001300002Q 011000008663031700ALESSANDRA MIRANDA SOARES               RUA PEDRO AZEREDO  70 TERREA            BONFIM         24800000ITABORAI       RJ0000000000000000                                        000000000000                   
0330001300003R 01000000000000000000000000                        225112016000000000001000                                                                                                                                                       
0330001300004S 011014APOS 7 DIAS DO VENCIMENTO SUJEITO A PROTESTO                                                                                                                                                                               
0330001300005S 011024APOS O VENCIMENTO SERA COBRADO MULTA DE 10% E JUROS DE 1% A M                                                                                                                                                              
0330001300006S 011034APOS O VENCIMENTO SOMENTE NA REDE BANCARIA                                                                                                                                                                                 
0330001300007S 011044NAO RECEBER 30 (TRINTA) DIAS APOS O VENCIMENTO                                                                                                                                                                             
0330001300008S 011054APOS  EXPIRADO O PRAZO DO BOLETO  SOMENTE NA IMOBILIARIA                                                                                                                                                                   
0330001300009P 0134029null3null3  0000000055867512  10218          1011201600000000009073300000 04N06022019110112016000000000000029000000000000000000000000000000000000000000000000000000                         000101500           
0330001300010Q 011000001232914703ALEXANDRE RANGEL DOS SANTOS             RUA  PEDRO AZEREDO  78 TERREA           CENTRO         24800000ITABORAI       RJ0000000000000000                                        000000000000                   
0330001300011R 01000000000000000000000000                        210112016000000000001000                                                                                                                                                       
0330001300012S 011014APOS 7 DIAS DO VENCIMENTO SUJEITO A PROTESTO                                                                                                                                                                               
0330001300013S 011024APOS O VENCIMENTO SERA COBRADO MULTA DE 10% E JUROS DE 1% A M                                                                                                                                                              
0330001300014S 011034APOS O VENCIMENTO SOMENTE NA REDE BANCARIA                                                                                                                                                                                 
0330001300015S 011044NAO RECEBER 30 (TRINTA) DIAS APOS O VENCIMENTO                                                                                                                                                                             
0330001300016S 011054APOS  EXPIRADO O PRAZO DO BOLETO  SOMENTE NA IMOBILIARIA                                                                                                                                                                   
0330001300017P 0134029null3null3  0000000055875512  10130          1011201600000000024671900000 04N06022019110112016000000000000081000000000000000000000000000000000000000000000000000000                         000101500           
0330001300018Q 012009265192000213ALTA CONEXAO TELECOMUNICACOES LTDA      RUA JANUARIO CAFFARO  39                JARDIM IMPERIAL24800000ITABORAI       RJ0000000000000000                                        000000000000                   
0330001300019R 01000000000000000000000000                        210112016000000000001000                                                                                                                                                       
0330001300020S 011014APOS 7 DIAS DO VENCIMENTO SUJEITO A PROTESTO                                                                                                                                                                               
0330001300021S 011024APOS O VENCIMENTO SERA COBRADO MULTA DE 10% E JUROS DE 1% A M                                                                                                                                                              
0330001300022S 011034APOS O VENCIMENTO SOMENTE NA REDE BANCARIA                                                                                                                                                                                 
0330001300023S 011044NAO RECEBER 30 (TRINTA) DIAS APOS O VENCIMENTO                                                                                                                                                                             
0330001300024S 011054APOS  EXPIRADO O PRAZO DO BOLETO  SOMENTE NA IMOBILIARIA                                                                                                                                                                   
0330001300025P 0134029null3null3  0000000055891512  10133          0511201600000000044248800000 04N06022019105112016000000000000146000000000000000000000000000000000000000000000000000000                         000101500           
0330001300026Q 011000001210111608ANDRE HENRIQUE DAS CHAGAS               AV 22 DE MAIO  5190 SOBRADO             CENTRO         24800000ITABORAI       RJ0000000000000000                                        000000000000                   
0330001300027R 01000000000000000000000000                        205112016000000000001000                                                                                                                                                       
0330001300028S 011014APOS 7 DIAS DO VENCIMENTO SUJEITO A PROTESTO                                                                                                                                                                               
0330001300029S 011024APOS O VENCIMENTO SERA COBRADO MULTA DE 10% E JUROS DE 1% A M                                                                                                                                                              
0330001300030S 011034APOS O VENCIMENTO SOMENTE NA REDE BANCARIA                                                                                                                                                                                 
0330001300031S 011044NAO RECEBER 30 (TRINTA) DIAS APOS O VENCIMENTO                                                                                                                                                                             
0330001300032S 011054APOS  EXPIRADO O PRAZO DO BOLETO  SOMENTE NA IMOBILIARIA                                                                                                                                                                   
0330001300033P 0134029null3null3  0000000055905512  10311          0511201600000000010944900000 04N06022019105112016000000000000036000000000000000000000000000000000000000000000000000000                         000101500           
0330001300034Q 011000011911932764ANDRE MICHAEL SOARES KTISTI             RUA WILLY RULF VARGAS  0 LT 103 B       SOSSEGO        24800327ITABORAI       RJ0000000000000000                                        000000000000                   
0330001300035R 01000000000000000000000000                        205112016000000000001000                                                                                                                                                       
0330001300036S 011014APOS 7 DIAS DO VENCIMENTO SUJEITO A PROTESTO                                                                                                                                                                               
0330001300037S 011024APOS O VENCIMENTO SERA COBRADO MULTA DE 10% E JUROS DE 1% A M                                                                                                                                                              
0330001300038S 011034APOS O VENCIMENTO SOMENTE NA REDE BANCARIA                                                                                                                                                                                 
0330001300039S 011044NAO RECEBER 30 (TRINTA) DIAS APOS O VENCIMENTO                                                                                                                                                                             
0330001300040S 011054APOS  EXPIRADO O PRAZO DO BOLETO  SOMENTE NA IMOBILIARIA                                                                                                                                                                   
0330001300041P 0134029null3null3  0000000055913512  10041          0511201600000000009274100000 04N06022019105112016000000000000030000000000000000000000000000000000000000000000000000000                         000101500           
0330001300042Q 011000037792156753ANGELO ACHILES DASSIE                   AV PREFEITO MILTON RODRIGUES  LT 409  S/MANILHA        24860116ITABORAI       RJ0000000000000000                                        000000000000                   
0330001300043R 01000000000000000000000000                        205112016000000000001000                                                                                                                                                       
0330001300044S 011014APOS 7 DIAS DO VENCIMENTO SUJEITO A PROTESTO                                                                                                                                                                               
0330001300045S 011024APOS O VENCIMENTO SERA COBRADO MULTA DE 10% E JUROS DE 1% A M                                                                                                                                                              
0330001300046S 011034APOS O VENCIMENTO SOMENTE NA REDE BANCARIA                                                                                                                                                                                 
0330001300047S 011044NAO RECEBER 30 (TRINTA) DIAS APOS O VENCIMENTO                                                                                                                                                                             
0330001300048S 011054APOS  EXPIRADO O PRAZO DO BOLETO  SOMENTE NA IMOBILIARIA                                                                                                                                                                   
0330001300049P 0134029null3null3  0000000055921512  10138          0511201600000000009196500000 04N06022019105112016000000000000030000000000000000000000000000000000000000000000000000000                         000101500           
0330001300050Q 011000037792156753ANGELO ACHILES DASSIE                   AV PREFEITO MILTON RODRIGUES  LOJA 03  4MANILHA        24800000ITABORAI       RJ0000000000000000                                        000000000000                   
0330001300051R 01000000000000000000000000                        205112016000000000001000                                                                                                                                                       
0330001300052S 011014APOS 7 DIAS DO VENCIMENTO SUJEITO A PROTESTO                                                                                                                                                                               
0330001300053S 011024APOS O VENCIMENTO SERA COBRADO MULTA DE 10% E JUROS DE 1% A M                                                                                                                                                              
0330001300054S 011034APOS O VENCIMENTO SOMENTE NA REDE BANCARIA                                                                                                                                                                                 
0330001300055S 011044NAO RECEBER 30 (TRINTA) DIAS APOS O VENCIMENTO                                                                                                                                                                             
0330001300056S 011054APOS  EXPIRADO O PRAZO DO BOLETO  SOMENTE NA IMOBILIARIA                                                                                                                                                                   
0330001300057P 0134029null3null3  0000000055930512  10217          1011201600000000034143100000 04N06022019110112016000000000000112000000000000000000000000000000000000000000000000000000                         000101500           
0330001300058Q 011000060934190615ARTUR DONIZETI ROCHA BARBOZA            RUA PREFEITO JOAO AUGUSTO DE ANDRADE  12CENTRO         24800000ITABORAI       RJ0000000000000000                                        000000000000                   
0330001300059R 01000000000000000000000000                        210112016000000000001000                                                                                                                                                       
0330001300060S 011014APOS 7 DIAS DO VENCIMENTO SUJEITO A PROTESTO                                                                                                                                                                               
0330001300061S 011024APOS O VENCIMENTO SERA COBRADO MULTA DE 10% E JUROS DE 1% A M                                                                                                                                                              
0330001300062S 011034APOS O VENCIMENTO SOMENTE NA REDE BANCARIA                                                                                                                                                                                 
0330001300063S 011044NAO RECEBER 30 (TRINTA) DIAS APOS O VENCIMENTO                                                                                                                                                                             
0330001300064S 011054APOS  EXPIRADO O PRAZO DO BOLETO  SOMENTE NA IMOBILIARIA                                                                                                                                                                   
0330001300065P 0134029null3null3  0000000055948512  10230          2511201600000000030217400000 04N06022019125112016000000000000099000000000000000000000000000000000000000000000000000000                         000101500           
0330001300066Q 012030097554002244ASSOC DA UNIAO ESTE BRAS DOS ADVENTISTASRUA JANUARIO CAFFARO  27 LOJA 01        CENTRO         24800209ITABORAI       RJ0000000000000000                                        000000000000                   
0330001300067R 01000000000000000000000000                        225112016000000000001000                                                                                                                                                       
0330001300068S 011014APOS 7 DIAS DO VENCIMENTO SUJEITO A PROTESTO                                                                                                                                                                               
0330001300069S 011024APOS O VENCIMENTO SERA COBRADO MULTA DE 10% E JUROS DE 1% A M                                                                                                                                                              
0330001300070S 011034APOS O VENCIMENTO SOMENTE NA REDE BANCARIA                                                                                                                                                                                 
0330001300071S 011044NAO RECEBER 30 (TRINTA) DIAS APOS O VENCIMENTO                                                                                                                                                                             
0330001300072S 011054APOS  EXPIRADO O PRAZO DO BOLETO  SOMENTE NA IMOBILIARIA                                                                                                                                                                   
0330001300073P 0134029null3null3  0000000055956512  10221          1011201600000000031890900000 04N06022019110112016000000000000105000000000000000000000000000000000000000000000000000000                         000101500           
0330001300074Q 011000075684292615BEATRIZ VIEIRA BRANDAO OLIVEIRA DE SOUSARUA JOSE JULIO DA CUNHA RAPOSO  47 APT60CENTRO         24800000ITABORAI       RJ0000000000000000                                        000000000000                   
0330001300075R 01000000000000000000000000                        210112016000000000001000                                                                                                                                                       
0330001300076S 011014APOS 7 DIAS DO VENCIMENTO SUJEITO A PROTESTO                                                                                                                                                                               
0330001300077S 011024APOS O VENCIMENTO SERA COBRADO MULTA DE 10% E JUROS DE 1% A M                                                                                                                                                              
0330001300078S 011034APOS O VENCIMENTO SOMENTE NA REDE BANCARIA                                                                                                                                                                                 
0330001300079S 011044NAO RECEBER 30 (TRINTA) DIAS APOS O VENCIMENTO                                                                                                                                                                             
0330001300080S 011054APOS  EXPIRADO O PRAZO DO BOLETO  SOMENTE NA IMOBILIARIA                                                                                                                                                                   
0330001300081P 0134029null3null3  0000000055964512  10318          2511201600000000007574500000 04N06022019125112016000000000000024000000000000000000000000000000000000000000000000000000                         000101500           
0330001300082Q 011000008208757756BRUNO DE ANDRADE PIO DE MEDEIROS        AVENIDA 01 QD 12 CASA 02  00            VALE DO SOL MAN24813060ITABORAI       RJ0000000000000000                                        000000000000                   
0330001300083R 01000000000000000000000000                        225112016000000000001000                                                                                                                                                       
0330001300084S 011014APOS 7 DIAS DO VENCIMENTO SUJEITO A PROTESTO                                                                                                                                                                               
0330001300085S 011024APOS O VENCIMENTO SERA COBRADO MULTA DE 10% E JUROS DE 1% A M                                                                                                                                                              
0330001300086S 011034APOS O VENCIMENTO SOMENTE NA REDE BANCARIA                                                                                                                                                                                 
0330001300087S 011044NAO RECEBER 30 (TRINTA) DIAS APOS O VENCIMENTO                                                                                                                                                                             
0330001300088S 011054APOS  EXPIRADO O PRAZO DO BOLETO  SOMENTE NA IMOBILIARIA                                                                                                                                                                   
0330001300089P 0134029null3null3  0000000055972512  10322          0511201600000000022143900000 04N06022019105112016000000000000073000000000000000000000000000000000000000000000000000000                         000101500           
0330001300090Q 011000001415973644CARLOS ANTONIO VIEIRA DE NORONHA        RUA AFONSO MELLO  200 CASA 77           RIO VARZEA     24812128ITABORAI       RJ0000000000000000                                        000000000000                   
0330001300091R 01000000000000000000000000                        205112016000000000001000                                                                                                                                                       
0330001300092S 011014APOS 7 DIAS DO VENCIMENTO SUJEITO A PROTESTO                                                                                                                                                                               
0330001300093S 011024APOS O VENCIMENTO SERA COBRADO MULTA DE 10% E JUROS DE 1% A M                                                                                                                                                              
0330001300094S 011034APOS O VENCIMENTO SOMENTE NA REDE BANCARIA                                                                                                                                                                                 
0330001300095S 011044NAO RECEBER 30 (TRINTA) DIAS APOS O VENCIMENTO                                                                                                                                                                             
0330001300096S 011054APOS  EXPIRADO O PRAZO DO BOLETO  SOMENTE NA IMOBILIARIA                                                                                                                                                                   
0330001300097P 0134029null3null3  0000000054526512  10326          1510201600000000015627000000 04N06022019115102016000000000000051000000000000000000000000000000000000000000000000000000                         000101500           
0330001300098Q 011000013546001770CARLOS AUGUSTO RIBEIRO DE MEDEIROS FERRERUA ABDOVAL CHAGAS VIEIRA QD 61  00 LOTEAMPLIACAO      24800000ITABORAI       RJ0000000000000000                                        000000000000                   
0330001300099R 01000000000000000000000000                        215102016000000000001000                                                                                                                                                       
0330001300100S 011014APOS 7 DIAS DO VENCIMENTO SUJEITO A PROTESTO                                                                                                                                                                               
0330001300101S 011024APOS O VENCIMENTO SERA COBRADO MULTA DE 10% E JUROS DE 1% A M                                                                                                                                                              
0330001300102S 011034APOS O VENCIMENTO SOMENTE NA REDE BANCARIA                                                                                                                                                                                 
0330001300103S 011044NAO RECEBER 30 (TRINTA) DIAS APOS O VENCIMENTO                                                                                                                                                                             
0330001300104S 011054APOS  EXPIRADO O PRAZO DO BOLETO  SOMENTE NA IMOBILIARIA                                                                                                                                                                   
0330001300105P 0134029null3null3  0000000055980512  10326          1511201600000000015387300000 04N06022019115112016000000000000050000000000000000000000000000000000000000000000000000000                         000101500           
0330001300106Q 011000013546001770CARLOS AUGUSTO RIBEIRO DE MEDEIROS FERRERUA ABDOVAL CHAGAS VIEIRA QD 61  00 LOTEAMPLIACAO      24800000ITABORAI       RJ0000000000000000                                        000000000000                   
0330001300107R 01000000000000000000000000                        215112016000000000001000                                                                                                                                                       
0330001300108S 011014APOS 7 DIAS DO VENCIMENTO SUJEITO A PROTESTO                                                                                                                                                                               
0330001300109S 011024APOS O VENCIMENTO SERA COBRADO MULTA DE 10% E JUROS DE 1% A M                                                                                                                                                              
0330001300110S 011034APOS O VENCIMENTO SOMENTE NA REDE BANCARIA                                                                                                                                                                                 
0330001300111S 011044NAO RECEBER 30 (TRINTA) DIAS APOS O VENCIMENTO                                                                                                                                                                             
0330001300112S 011054APOS  EXPIRADO O PRAZO DO BOLETO  SOMENTE NA IMOBILIARIA                                                                                                                                                                   
0330001300113P 0134029null3null3  0000000055999512  10297          1511201600000000049887800000 04N06022019115112016000000000000164000000000000000000000000000000000000000000000000000000                         000101500           
0330001300114Q 011000001024028763CARLOS HENRIQUE COSTA SIQUEIRA          RUA DR LEAL JUNIOR LT 13  QD 86         SAO JOAQUIM    24800000ITABORAI       RJ0000000000000000                                        000000000000                   
0330001300115R 01000000000000000000000000                        215112016000000000001000                                                                                                                                                       
0330001300116S 011014APOS 7 DIAS DO VENCIMENTO SUJEITO A PROTESTO                                                                                                                                                                               
0330001300117S 011024APOS O VENCIMENTO SERA COBRADO MULTA DE 10% E JUROS DE 1% A M                                                                                                                                                              
0330001300118S 011034APOS O VENCIMENTO SOMENTE NA REDE BANCARIA                                                                                                                                                                                 
0330001300119S 011044NAO RECEBER 30 (TRINTA) DIAS APOS O VENCIMENTO                                                                                                                                                                             
0330001300120S 011054APOS  EXPIRADO O PRAZO DO BOLETO  SOMENTE NA IMOBILIARIA                                                                                                                                                                   
0330001300121P 0134029null3null3  0000000056006512  10262          0511201600000000012034400000 04N06022019105112016000000000000039000000000000000000000000000000000000000000000000000000                         000101500           
0330001300122Q 011000026401479000CARLOS JUARES DOS SANTOS                RUA JANUARIO CAFFARO LT 29  01 CASA     CENTRO         24800209ITABORAI       RJ0000000000000000                                        000000000000                   
0330001300123R 01000000000000000000000000                        205112016000000000001000                                                                                                                                                       
0330001300124S 011014APOS 7 DIAS DO VENCIMENTO SUJEITO A PROTESTO                                                                                                                                                                               
0330001300125S 011024APOS O VENCIMENTO SERA COBRADO MULTA DE 10% E JUROS DE 1% A M                                                                                                                                                              
0330001300126S 011034APOS O VENCIMENTO SOMENTE NA REDE BANCARIA                                                                                                                                                                                 
0330001300127S 011044NAO RECEBER 30 (TRINTA) DIAS APOS O VENCIMENTO                                                                                                                                                                             
0330001300128S 011054APOS  EXPIRADO O PRAZO DO BOLETO  SOMENTE NA IMOBILIARIA                                                                                                                                                                   
0330001300129P 0134029null3null3  0000000056030512  10285          0511201600000000008520600000 04N06022019105112016000000000000028000000000000000000000000000000000000000000000000000000                         000101500           
0330001300130Q 011000034184292895CLAUDINEIDE ALVES DE SOUZA              RUA FRANCISO GOMES  LT 38 QD 3 CS 3 FUNDNANCILANDIA    24800000ITABORAI       RJ0000000000000000                                        000000000000                   
0330001300131R 01000000000000000000000000                        205112016000000000001000                                                                                                                                                       
0330001300132S 011014APOS 7 DIAS DO VENCIMENTO SUJEITO A PROTESTO                                                                                                                                                                               
0330001300133S 011024APOS O VENCIMENTO SERA COBRADO MULTA DE 10% E JUROS DE 1% A M                                                                                                                                                              
0330001300134S 011034APOS O VENCIMENTO SOMENTE NA REDE BANCARIA                                                                                                                                                                                 
0330001300135S 011044NAO RECEBER 30 (TRINTA) DIAS APOS O VENCIMENTO                                                                                                                                                                             
0330001300136S 011054APOS  EXPIRADO O PRAZO DO BOLETO  SOMENTE NA IMOBILIARIA                                                                                                                                                                   
0330001300137P 0134029null3null3  0000000056049512  10286          1511201600000000007529600000 04N06022019115112016000000000000024000000000000000000000000000000000000000000000000000000                         000101500           
0330001300138Q 011000002942141786CONCEICAO DE MARIA OLIVEEIRA BARBOSA    RUA 42  LT 40 QD204  CS 02  S/N         AMPLIACAO      24800000ITABORAI       RJ0000000000000000                                        000000000000                   
0330001300139R 01000000000000000000000000                        215112016000000000001000                                                                                                                                                       
0330001300140S 011014APOS 7 DIAS DO VENCIMENTO SUJEITO A PROTESTO                                                                                                                                                                               
0330001300141S 011024APOS O VENCIMENTO SERA COBRADO MULTA DE 10% E JUROS DE 1% A M                                                                                                                                                              
0330001300142S 011034APOS O VENCIMENTO SOMENTE NA REDE BANCARIA                                                                                                                                                                                 
0330001300143S 011044NAO RECEBER 30 (TRINTA) DIAS APOS O VENCIMENTO                                                                                                                                                                             
0330001300144S 011054APOS  EXPIRADO O PRAZO DO BOLETO  SOMENTE NA IMOBILIARIA                                                                                                                                                                   
0330001300145P 0134029null3null3  0000000056057512  10164          0511201600000000039534800000 04N06022019105112016000000000000130000000000000000000000000000000000000000000000000000000                         000101500           
0330001300146Q 012019486914000132CONSORCIO ENCALSO   SOBRENCO   CTESA   CROD  BR 493  0 CASA 2                   MONTE VERDE    24857604ITABORAI       RJ0000000000000000                                        000000000000                   
0330001300147R 01000000000000000000000000                        205112016000000000001000                                                                                                                                                       
0330001300148S 011014APOS 7 DIAS DO VENCIMENTO SUJEITO A PROTESTO                                                                                                                                                                               
0330001300149S 011024APOS O VENCIMENTO SERA COBRADO MULTA DE 10% E JUROS DE 1% A M                                                                                                                                                              
0330001300150S 011034APOS O VENCIMENTO SOMENTE NA REDE BANCARIA                                                                                                                                                                                 
0330001300151S 011044NAO RECEBER 30 (TRINTA) DIAS APOS O VENCIMENTO                                                                                                                                                                             
0330001300152S 011054APOS  EXPIRADO O PRAZO DO BOLETO  SOMENTE NA IMOBILIARIA                                                                                                                                                                   
0330001300153P 0134029null3null3  0000000056065512  10325          0511201600000000025790700000 04N06022019105112016000000000000085000000000000000000000000000000000000000000000000000000                         000101500           
0330001300154Q 012019486914000132CONSORCIO ENCALSO   SOBRENCO  CTESA   CORUA SAO FRANCISCO V CASA 38  S/N        MANILHA        24800000ITABORAI       RJ0000000000000000                                        000000000000                   
0330001300155R 01000000000000000000000000                        205112016000000000001000                                                                                                                                                       
0330001300156S 011014APOS 7 DIAS DO VENCIMENTO SUJEITO A PROTESTO                                                                                                                                                                               
0330001300157S 011024APOS O VENCIMENTO SERA COBRADO MULTA DE 10% E JUROS DE 1% A M                                                                                                                                                              
0330001300158S 011034APOS O VENCIMENTO SOMENTE NA REDE BANCARIA                                                                                                                                                                                 
0330001300159S 011044NAO RECEBER 30 (TRINTA) DIAS APOS O VENCIMENTO                                                                                                                                                                             
0330001300160S 011054APOS  EXPIRADO O PRAZO DO BOLETO  SOMENTE NA IMOBILIARIA                                                                                                                                                                   
0330001300161P 0134029null3null3  0000000049190512  10066          0506201600000000038061700000 04N06022019105062016000000000000125000000000000000000000000000000000000000000000000000000                         000101500           
0330001300162Q 012012493046000179CONSORCIO QUEIROZ GALVAO                RUA JOSE RAPOSO  47                     CENTRO         24800000ITABORAI       RJ0000000000000000                                        000000000000                   
0330001300163R 01000000000000000000000000                        205062016000000000001000                                                                                                                                                       
0330001300164S 011014APOS 7 DIAS DO VENCIMENTO SUJEITO A PROTESTO                                                                                                                                                                               
0330001300165S 011024APOS O VENCIMENTO SERA COBRADO MULTA DE 10% E JUROS DE 1% A M                                                                                                                                                              
0330001300166S 011034APOS O VENCIMENTO SOMENTE NA REDE BANCARIA                                                                                                                                                                                 
0330001300167S 011044NAO RECEBER 30 (TRINTA) DIAS APOS O VENCIMENTO                                                                                                                                                                             
0330001300168S 011054APOS  EXPIRADO O PRAZO DO BOLETO  SOMENTE NA IMOBILIARIA                                                                                                                                                                   
0330001300169P 0134029null3null3  0000000050555512  10066          0507201600000000037775500000 04N06022019105072016000000000000124000000000000000000000000000000000000000000000000000000                         000101500           
0330001300170Q 012012493046000179CONSORCIO QUEIROZ GALVAO                RUA JOSE RAPOSO  47                     CENTRO         24800000ITABORAI       RJ0000000000000000                                        000000000000                   
0330001300171R 01000000000000000000000000                        205072016000000000001000                                                                                                                                                       
0330001300172S 011014APOS 7 DIAS DO VENCIMENTO SUJEITO A PROTESTO                                                                                                                                                                               
0330001300173S 011024APOS O VENCIMENTO SERA COBRADO MULTA DE 10% E JUROS DE 1% A M                                                                                                                                                              
0330001300174S 011034APOS O VENCIMENTO SOMENTE NA REDE BANCARIA                                                                                                                                                                                 
0330001300175S 011044NAO RECEBER 30 (TRINTA) DIAS APOS O VENCIMENTO                                                                                                                                                                             
0330001300176S 011054APOS  EXPIRADO O PRAZO DO BOLETO  SOMENTE NA IMOBILIARIA                                                                                                                                                                   
0330001300177P 0134029null3null3  0000000051977512  10066          0508201600000000047236700000 04N06022019105082016000000000000155000000000000000000000000000000000000000000000000000000                         000101500           
0330001300178Q 012012493046000179CONSORCIO QUEIROZ GALVAO                RUA JOSE RAPOSO  47                     CENTRO         24800000ITABORAI       RJ0000000000000000                                        000000000000                   
0330001300179R 01000000000000000000000000                        205082016000000000001000                                                                                                                                                       
0330001300180S 011014APOS 7 DIAS DO VENCIMENTO SUJEITO A PROTESTO                                                                                                                                                                               
0330001300181S 011024APOS O VENCIMENTO SERA COBRADO MULTA DE 10% E JUROS DE 1% A M                                                                                                                                                              
0330001300182S 011034APOS O VENCIMENTO SOMENTE NA REDE BANCARIA                                                                                                                                                                                 
0330001300183S 011044NAO RECEBER 30 (TRINTA) DIAS APOS O VENCIMENTO                                                                                                                                                                             
0330001300184S 011054APOS  EXPIRADO O PRAZO DO BOLETO  SOMENTE NA IMOBILIARIA                                                                                                                                                                   
0330001300185P 0134029null3null3  0000000053325512  10066          0509201600000000046876200000 04N06022019105092016000000000000154000000000000000000000000000000000000000000000000000000                         000101500           
0330001300186Q 012012493046000179CONSORCIO QUEIROZ GALVAO                RUA JOSE RAPOSO  47                     CENTRO         24800000ITABORAI       RJ0000000000000000                                        000000000000                   
0330001300187R 01000000000000000000000000                        205092016000000000001000                                                                                                                                                       
0330001300188S 011014APOS 7 DIAS DO VENCIMENTO SUJEITO A PROTESTO                                                                                                                                                                               
0330001300189S 011024APOS O VENCIMENTO SERA COBRADO MULTA DE 10% E JUROS DE 1% A M                                                                                                                                                              
0330001300190S 011034APOS O VENCIMENTO SOMENTE NA REDE BANCARIA                                                                                                                                                                                 
0330001300191S 011044NAO RECEBER 30 (TRINTA) DIAS APOS O VENCIMENTO                                                                                                                                                                             
0330001300192S 011054APOS  EXPIRADO O PRAZO DO BOLETO  SOMENTE NA IMOBILIARIA                                                                                                                                                                   
0330001300193P 0134029null3null3  0000000054615512  10066          0510201600000000046515600000 04N06022019105102016000000000000153000000000000000000000000000000000000000000000000000000                         000101500           
0330001300194Q 012012493046000179CONSORCIO QUEIROZ GALVAO                RUA JOSE RAPOSO  47                     CENTRO         24800000ITABORAI       RJ0000000000000000                                        000000000000                   
0330001300195R 01000000000000000000000000                        205102016000000000001000                                                                                                                                                       
0330001300196S 011014APOS 7 DIAS DO VENCIMENTO SUJEITO A PROTESTO                                                                                                                                                                               
0330001300197S 011024APOS O VENCIMENTO SERA COBRADO MULTA DE 10% E JUROS DE 1% A M                                                                                                                                                              
0330001300198S 011034APOS O VENCIMENTO SOMENTE NA REDE BANCARIA                                                                                                                                                                                 
0330001300199S 011044NAO RECEBER 30 (TRINTA) DIAS APOS O VENCIMENTO                                                                                                                                                                             
0330001300200S 011054APOS  EXPIRADO O PRAZO DO BOLETO  SOMENTE NA IMOBILIARIA                                                                                                                                                                   
0330001300201P 0134029null3null3  0000000056073512  10066          0511201600000000046155000000 04N06022019105112016000000000000152000000000000000000000000000000000000000000000000000000                         000101500           
0330001300202Q 012012493046000179CONSORCIO QUEIROZ GALVAO                RUA JOSE RAPOSO  47                     CENTRO         24800000ITABORAI       RJ0000000000000000                                        000000000000                   
0330001300203R 01000000000000000000000000                        205112016000000000001000                                                                                                                                                       
0330001300204S 011014APOS 7 DIAS DO VENCIMENTO SUJEITO A PROTESTO                                                                                                                                                                               
0330001300205S 011024APOS O VENCIMENTO SERA COBRADO MULTA DE 10% E JUROS DE 1% A M                                                                                                                                                              
0330001300206S 011034APOS O VENCIMENTO SOMENTE NA REDE BANCARIA                                                                                                                                                                                 
0330001300207S 011044NAO RECEBER 30 (TRINTA) DIAS APOS O VENCIMENTO                                                                                                                                                                             
0330001300208S 011054APOS  EXPIRADO O PRAZO DO BOLETO  SOMENTE NA IMOBILIARIA                                                                                                                                                                   
0330001300209P 0134029null3null3  0000000056081512  10193          0511201600000000026880700000 04N06022019105112016000000000000088000000000000000000000000000000000000000000000000000000                         000101500           
0330001300210Q 012061584223000138CONSTRUCAP CCPS ENGENHARIA E COMERCIO S ROD  BR 493  00 CASA 154                MONTE VERDE    24857604ITABORAI       RJ0000000000000000                                        000000000000                   
0330001300211R 01000000000000000000000000                        205112016000000000001000                                                                                                                                                       
0330001300212S 011014APOS 7 DIAS DO VENCIMENTO SUJEITO A PROTESTO                                                                                                                                                                               
0330001300213S 011024APOS O VENCIMENTO SERA COBRADO MULTA DE 10% E JUROS DE 1% A M                                                                                                                                                              
0330001300214S 011034APOS O VENCIMENTO SOMENTE NA REDE BANCARIA                                                                                                                                                                                 
0330001300215S 011044NAO RECEBER 30 (TRINTA) DIAS APOS O VENCIMENTO                                                                                                                                                                             
0330001300216S 011054APOS  EXPIRADO O PRAZO DO BOLETO  SOMENTE NA IMOBILIARIA                                                                                                                                                                   
0330001300217P 0134029null3null3  0000000056090512  10315          2511201600000000036962300000 04N06022019125112016000000000000121000000000000000000000000000000000000000000000000000000                         000101500           
0330001300218Q 011000000566820188DALLYSSON CORTEZ GRIPPE                 AV  FLOR  FERNANDES  S/N BL 14  APTO 208CAMBOINHAS     20540110NITEROI        RJ0000000000000000                                        000000000000                   
0330001300219R 01000000000000000000000000                        225112016000000000001000                                                                                                                                                       
0330001300220S 011014APOS 7 DIAS DO VENCIMENTO SUJEITO A PROTESTO                                                                                                                                                                               
0330001300221S 011024APOS O VENCIMENTO SERA COBRADO MULTA DE 10% E JUROS DE 1% A M                                                                                                                                                              
0330001300222S 011034APOS O VENCIMENTO SOMENTE NA REDE BANCARIA                                                                                                                                                                                 
0330001300223S 011044NAO RECEBER 30 (TRINTA) DIAS APOS O VENCIMENTO                                                                                                                                                                             
0330001300224S 011054APOS  EXPIRADO O PRAZO DO BOLETO  SOMENTE NA IMOBILIARIA                                                                                                                                                                   
0330001300225P 0134029null3null3  0000000056111512  10291          1011201600000000011955800000 04N06022019110112016000000000000039000000000000000000000000000000000000000000000000000000                         000101500           
0330001300226Q 011000009475002782DAVID DA SILVA VIANA                    RUA PRESIDENTE CASTELO BRANCO  320 SOBRANOVA CIDADE    24800000ITABORAI       RJ0000000000000000                                        000000000000                   
0330001300227R 01000000000000000000000000                        210112016000000000001000                                                                                                                                                       
0330001300228S 011014APOS 7 DIAS DO VENCIMENTO SUJEITO A PROTESTO                                                                                                                                                                               
0330001300229S 011024APOS O VENCIMENTO SERA COBRADO MULTA DE 10% E JUROS DE 1% A M                                                                                                                                                              
0330001300230S 011034APOS O VENCIMENTO SOMENTE NA REDE BANCARIA                                                                                                                                                                                 
0330001300231S 011044NAO RECEBER 30 (TRINTA) DIAS APOS O VENCIMENTO                                                                                                                                                                             
0330001300232S 011054APOS  EXPIRADO O PRAZO DO BOLETO  SOMENTE NA IMOBILIARIA                                                                                                                                                                   
0330001300233P 0134029null3null3  0000000056120512  10293          1011201600000000010237600000 04N06022019110112016000000000000033000000000000000000000000000000000000000000000000000000                         000101500           
0330001300234Q 011000009972175707DAYELLE SESANA PEREIRA                  RUA CESAR XARA  999 APT 408 BL 01       VENDA DAS PEDRA24800000ITABORAI       RJ0000000000000000                                        000000000000                   
0330001300235R 01000000000000000000000000                        210112016000000000001000                                                                                                                                                       
0330001300236S 011014APOS 7 DIAS DO VENCIMENTO SUJEITO A PROTESTO                                                                                                                                                                               
0330001300237S 011024APOS O VENCIMENTO SERA COBRADO MULTA DE 10% E JUROS DE 1% A M                                                                                                                                                              
0330001300238S 011034APOS O VENCIMENTO SOMENTE NA REDE BANCARIA                                                                                                                                                                                 
0330001300239S 011044NAO RECEBER 30 (TRINTA) DIAS APOS O VENCIMENTO                                                                                                                                                                             
0330001300240S 011054APOS  EXPIRADO O PRAZO DO BOLETO  SOMENTE NA IMOBILIARIA                                                                                                                                                                   
0330001300241P 0134029null3null3  0000000056138512  10309          0511201600000000016021600000 04N06022019105112016000000000000052000000000000000000000000000000000000000000000000000000                         000101500           
0330001300242Q 011000084185813791DEIGMAR SOARES BERNARDES                ROD BR 493  KM 1 5  98 CASA             MANILHA        24800000ITABORAI       RJ0000000000000000                                        000000000000                   
0330001300243R 01000000000000000000000000                        205112016000000000001000                                                                                                                                                       
0330001300244S 011014APOS 7 DIAS DO VENCIMENTO SUJEITO A PROTESTO                                                                                                                                                                               
0330001300245S 011024APOS O VENCIMENTO SERA COBRADO MULTA DE 10% E JUROS DE 1% A M                                                                                                                                                              
0330001300246S 011034APOS O VENCIMENTO SOMENTE NA REDE BANCARIA                                                                                                                                                                                 
0330001300247S 011044NAO RECEBER 30 (TRINTA) DIAS APOS O VENCIMENTO                                                                                                                                                                             
0330001300248S 011054APOS  EXPIRADO O PRAZO DO BOLETO  SOMENTE NA IMOBILIARIA                                                                                                                                                                   
0330001300249P 0134029null3null3  0000000054690512  10270          1010201600000000011464400000 04N06022019110102016000000000000037000000000000000000000000000000000000000000000000000000                         000101500           
0330001300250Q 011000009541283705DIEGO RODRIGUES BATISTA DE SOUZA        RUA PRFa MARIA EMILIA DANTAS BARRETO  33NOVA CIDADE    24800000ITABORAI       RJ0000000000000000                                        000000000000                   
0330001300251R 01000000000000000000000000                        210102016000000000001000                                                                                                                                                       
0330001300252S 011014APOS 7 DIAS DO VENCIMENTO SUJEITO A PROTESTO                                                                                                                                                                               
0330001300253S 011024APOS O VENCIMENTO SERA COBRADO MULTA DE 10% E JUROS DE 1% A M                                                                                                                                                              
0330001300254S 011034APOS O VENCIMENTO SOMENTE NA REDE BANCARIA                                                                                                                                                                                 
0330001300255S 011044NAO RECEBER 30 (TRINTA) DIAS APOS O VENCIMENTO                                                                                                                                                                             
0330001300256S 011054APOS  EXPIRADO O PRAZO DO BOLETO  SOMENTE NA IMOBILIARIA                                                                                                                                                                   
0330001300257P 0134029null3null3  0000000056154512  10270          1011201600000000011453100000 04N06022019110112016000000000000037000000000000000000000000000000000000000000000000000000                         000101500           
0330001300258Q 011000009541283705DIEGO RODRIGUES BATISTA DE SOUZA        RUA PRFa MARIA EMILIA DANTAS BARRETO  33NOVA CIDADE    24800000ITABORAI       RJ0000000000000000                                        000000000000                   
0330001300259R 01000000000000000000000000                        210112016000000000001000                                                                                                                                                       
0330001300260S 011014APOS 7 DIAS DO VENCIMENTO SUJEITO A PROTESTO                                                                                                                                                                               
0330001300261S 011024APOS O VENCIMENTO SERA COBRADO MULTA DE 10% E JUROS DE 1% A M                                                                                                                                                              
0330001300262S 011034APOS O VENCIMENTO SOMENTE NA REDE BANCARIA                                                                                                                                                                                 
0330001300263S 011044NAO RECEBER 30 (TRINTA) DIAS APOS O VENCIMENTO                                                                                                                                                                             
0330001300264S 011054APOS  EXPIRADO O PRAZO DO BOLETO  SOMENTE NA IMOBILIARIA                                                                                                                                                                   
0330001300265P 0134029null3null3  0000000056162512  10274          1011201600000000009896600000 04N06022019110112016000000000000032000000000000000000000000000000000000000000000000000000                         000101500           
0330001300266Q 011000005891458780DIOGO DA SILVA GONCAVES RITO            RUA EUGENIO COSTA  203 CASA 01 SOBRADO  QUISSAMA       24859544ITABORAI       RJ0000000000000000                                        000000000000                   
0330001300267R 01000000000000000000000000                        210112016000000000001000                                                                                                                                                       
0330001300268S 011014APOS 7 DIAS DO VENCIMENTO SUJEITO A PROTESTO                                                                                                                                                                               
0330001300269S 011024APOS O VENCIMENTO SERA COBRADO MULTA DE 10% E JUROS DE 1% A M                                                                                                                                                              
0330001300270S 011034APOS O VENCIMENTO SOMENTE NA REDE BANCARIA                                                                                                                                                                                 
0330001300271S 011044NAO RECEBER 30 (TRINTA) DIAS APOS O VENCIMENTO                                                                                                                                                                             
0330001300272S 011054APOS  EXPIRADO O PRAZO DO BOLETO  SOMENTE NA IMOBILIARIA                                                                                                                                                                   
0330001300273P 0134029null3null3  0000000052078512  10310          0508201600000000012222800000 04N06022019105082016000000000000040000000000000000000000000000000000000000000000000000000                         000101500           
0330001300274Q 011000007254255716DOUGLAS CARDOSO JUNIOR                  RUA WILLY RULF VARGAS  104              CHIC           24800000ITABORAI       RJ0000000000000000                                        000000000000                   
0330001300275R 01000000000000000000000000                        205082016000000000001000                                                                                                                                                       
0330001300276S 011014APOS 7 DIAS DO VENCIMENTO SUJEITO A PROTESTO                                                                                                                                                                               
0330001300277S 011024APOS O VENCIMENTO SERA COBRADO MULTA DE 10% E JUROS DE 1% A M                                                                                                                                                              
0330001300278S 011034APOS O VENCIMENTO SOMENTE NA REDE BANCARIA                                                                                                                                                                                 
0330001300279S 011044NAO RECEBER 30 (TRINTA) DIAS APOS O VENCIMENTO                                                                                                                                                                             
0330001300280S 011054APOS  EXPIRADO O PRAZO DO BOLETO  SOMENTE NA IMOBILIARIA                                                                                                                                                                   
0330001300281P 0134029null3null3  0000000053414512  10310          0509201600000000012129500000 04N06022019105092016000000000000040000000000000000000000000000000000000000000000000000000                         000101500           
0330001300282Q 011000007254255716DOUGLAS CARDOSO JUNIOR                  RUA WILLY RULF VARGAS  104              CHIC           24800000ITABORAI       RJ0000000000000000                                        000000000000                   
0330001300283R 01000000000000000000000000                        205092016000000000001000                                                                                                                                                       
0330001300284S 011014APOS 7 DIAS DO VENCIMENTO SUJEITO A PROTESTO                                                                                                                                                                               
0330001300285S 011024APOS O VENCIMENTO SERA COBRADO MULTA DE 10% E JUROS DE 1% A M                                                                                                                                                              
0330001300286S 011034APOS O VENCIMENTO SOMENTE NA REDE BANCARIA                                                                                                                                                                                 
0330001300287S 011044NAO RECEBER 30 (TRINTA) DIAS APOS O VENCIMENTO                                                                                                                                                                             
0330001300288S 011054APOS  EXPIRADO O PRAZO DO BOLETO  SOMENTE NA IMOBILIARIA                                                                                                                                                                   
0330001300289P 0134029null3null3  0000000054712512  10310          0510201600000000012036200000 04N06022019105102016000000000000039000000000000000000000000000000000000000000000000000000                         000101500           
0330001300290Q 011000007254255716DOUGLAS CARDOSO JUNIOR                  RUA WILLY RULF VARGAS  104              CHIC           24800000ITABORAI       RJ0000000000000000                                        000000000000                   
0330001300291R 01000000000000000000000000                        205102016000000000001000                                                                                                                                                       
0330001300292S 011014APOS 7 DIAS DO VENCIMENTO SUJEITO A PROTESTO                                                                                                                                                                               
0330001300293S 011024APOS O VENCIMENTO SERA COBRADO MULTA DE 10% E JUROS DE 1% A M                                                                                                                                                              
0330001300294S 011034APOS O VENCIMENTO SOMENTE NA REDE BANCARIA                                                                                                                                                                                 
0330001300295S 011044NAO RECEBER 30 (TRINTA) DIAS APOS O VENCIMENTO                                                                                                                                                                             
0330001300296S 011054APOS  EXPIRADO O PRAZO DO BOLETO  SOMENTE NA IMOBILIARIA                                                                                                                                                                   
0330001300297P 0134029null3null3  0000000056170512  10310          0511201600000000011942900000 04N06022019105112016000000000000039000000000000000000000000000000000000000000000000000000                         000101500           
0330001300298Q 011000007254255716DOUGLAS CARDOSO JUNIOR                  RUA WILLY RULF VARGAS  104              CHIC           24800000ITABORAI       RJ0000000000000000                                        000000000000                   
0330001300299R 01000000000000000000000000                        205112016000000000001000                                                                                                                                                       
0330001300300S 011014APOS 7 DIAS DO VENCIMENTO SUJEITO A PROTESTO                                                                                                                                                                               
0330001300301S 011024APOS O VENCIMENTO SERA COBRADO MULTA DE 10% E JUROS DE 1% A M                                                                                                                                                              
0330001300302S 011034APOS O VENCIMENTO SOMENTE NA REDE BANCARIA                                                                                                                                                                                 
0330001300303S 011044NAO RECEBER 30 (TRINTA) DIAS APOS O VENCIMENTO                                                                                                                                                                             
0330001300304S 011054APOS  EXPIRADO O PRAZO DO BOLETO  SOMENTE NA IMOBILIARIA                                                                                                                                                                   
0330001300305P 0134029null3null3  0000000040894512  10236          1512201500000000013869200000 04N06022019115122015000000000000045000000000000000000000000000000000000000000000000000000                         000101500           
0330001300306Q 011000080091985653EDILSON GONCALVES DOS SANTOS            RUA 19  0 LT 8 QD 25                    NANCILANDIA    24801020ITABORAI       RJ0000000000000000                                        000000000000                   
0330001300307R 01000000000000000000000000                        215122015000000000001000                                                                                                                                                       
0330001300308S 011014APOS 7 DIAS DO VENCIMENTO SUJEITO A PROTESTO                                                                                                                                                                               
0330001300309S 011024APOS O VENCIMENTO SERA COBRADO MULTA DE 10% E JUROS DE 1% A M                                                                                                                                                              
0330001300310S 011034APOS O VENCIMENTO SOMENTE NA REDE BANCARIA                                                                                                                                                                                 
0330001300311S 011044NAO RECEBER 30 (TRINTA) DIAS APOS O VENCIMENTO                                                                                                                                                                             
0330001300312S 011054APOS  EXPIRADO O PRAZO DO BOLETO  SOMENTE NA IMOBILIARIA                                                                                                                                                                   
0330001300313P 0134029null3null3  0000000042587512  10236          1501201600000000013769400000 04N06022019115012016000000000000045000000000000000000000000000000000000000000000000000000                         000101500           
0330001300314Q 011000080091985653EDILSON GONCALVES DOS SANTOS            RUA 19  0 LT 8 QD 25                    NANCILANDIA    24801020ITABORAI       RJ0000000000000000                                        000000000000                   
0330001300315R 01000000000000000000000000                        215012016000000000001000                                                                                                                                                       
0330001300316S 011014APOS 7 DIAS DO VENCIMENTO SUJEITO A PROTESTO                                                                                                                                                                               
0330001300317S 011024APOS O VENCIMENTO SERA COBRADO MULTA DE 10% E JUROS DE 1% A M                                                                                                                                                              
0330001300318S 011034APOS O VENCIMENTO SOMENTE NA REDE BANCARIA                                                                                                                                                                                 
0330001300319S 011044NAO RECEBER 30 (TRINTA) DIAS APOS O VENCIMENTO                                                                                                                                                                             
0330001300320S 011054APOS  EXPIRADO O PRAZO DO BOLETO  SOMENTE NA IMOBILIARIA                                                                                                                                                                   
0330001300321P 0134029null3null3  0000000043788512  10236          1502201600000000013669600000 04N06022019115022016000000000000045000000000000000000000000000000000000000000000000000000                         000101500           
0330001300322Q 011000080091985653EDILSON GONCALVES DOS SANTOS            RUA 19  0 LT 8 QD 25                    NANCILANDIA    24801020ITABORAI       RJ0000000000000000                                        000000000000                   
0330001300323R 01000000000000000000000000                        215022016000000000001000                                                                                                                                                       
0330001300324S 011014APOS 7 DIAS DO VENCIMENTO SUJEITO A PROTESTO                                                                                                                                                                               
0330001300325S 011024APOS O VENCIMENTO SERA COBRADO MULTA DE 10% E JUROS DE 1% A M                                                                                                                                                              
0330001300326S 011034APOS O VENCIMENTO SOMENTE NA REDE BANCARIA                                                                                                                                                                                 
0330001300327S 011044NAO RECEBER 30 (TRINTA) DIAS APOS O VENCIMENTO                                                                                                                                                                             
0330001300328S 011054APOS  EXPIRADO O PRAZO DO BOLETO  SOMENTE NA IMOBILIARIA                                                                                                                                                                   
0330001300329P 0134029null3null3  0000000045179512  10236          1503201600000000013569800000 04N06022019115032016000000000000044000000000000000000000000000000000000000000000000000000                         000101500           
0330001300330Q 011000080091985653EDILSON GONCALVES DOS SANTOS            RUA 19  0 LT 8 QD 25                    NANCILANDIA    24801020ITABORAI       RJ0000000000000000                                        000000000000                   
0330001300331R 01000000000000000000000000                        215032016000000000001000                                                                                                                                                       
0330001300332S 011014APOS 7 DIAS DO VENCIMENTO SUJEITO A PROTESTO                                                                                                                                                                               
0330001300333S 011024APOS O VENCIMENTO SERA COBRADO MULTA DE 10% E JUROS DE 1% A M                                                                                                                                                              
0330001300334S 011034APOS O VENCIMENTO SOMENTE NA REDE BANCARIA                                                                                                                                                                                 
0330001300335S 011044NAO RECEBER 30 (TRINTA) DIAS APOS O VENCIMENTO                                                                                                                                                                             
0330001300336S 011054APOS  EXPIRADO O PRAZO DO BOLETO  SOMENTE NA IMOBILIARIA                                                                                                                                                                   
0330001300337P 0134029null3null3  0000000046728512  10236          1504201600000000013496900000 04N06022019115042016000000000000044000000000000000000000000000000000000000000000000000000                         000101500           
0330001300338Q 011000080091985653EDILSON GONCALVES DOS SANTOS            RUA 19  0 LT 8 QD 25                    NANCILANDIA    24801020ITABORAI       RJ0000000000000000                                        000000000000                   
0330001300339R 01000000000000000000000000                        215042016000000000001000                                                                                                                                                       
0330001300340S 011014APOS 7 DIAS DO VENCIMENTO SUJEITO A PROTESTO                                                                                                                                                                               
0330001300341S 011024APOS O VENCIMENTO SERA COBRADO MULTA DE 10% E JUROS DE 1% A M                                                                                                                                                              
0330001300342S 011034APOS O VENCIMENTO SOMENTE NA REDE BANCARIA                                                                                                                                                                                 
0330001300343S 011044NAO RECEBER 30 (TRINTA) DIAS APOS O VENCIMENTO                                                                                                                                                                             
0330001300344S 011054APOS  EXPIRADO O PRAZO DO BOLETO  SOMENTE NA IMOBILIARIA                                                                                                                                                                   
0330001300345P 0134029null3null3  0000000048070512  10236          1505201600000000013396900000 04N06022019115052016000000000000044000000000000000000000000000000000000000000000000000000                         000101500           
0330001300346Q 011000080091985653EDILSON GONCALVES DOS SANTOS            RUA 19  0 LT 8 QD 25                    NANCILANDIA    24801020ITABORAI       RJ0000000000000000                                        000000000000                   
0330001300347R 01000000000000000000000000                        215052016000000000001000                                                                                                                                                       
0330001300348S 011014APOS 7 DIAS DO VENCIMENTO SUJEITO A PROTESTO                                                                                                                                                                               
0330001300349S 011024APOS O VENCIMENTO SERA COBRADO MULTA DE 10% E JUROS DE 1% A M                                                                                                                                                              
0330001300350S 011034APOS O VENCIMENTO SOMENTE NA REDE BANCARIA                                                                                                                                                                                 
0330001300351S 011044NAO RECEBER 30 (TRINTA) DIAS APOS O VENCIMENTO                                                                                                                                                                             
0330001300352S 011054APOS  EXPIRADO O PRAZO DO BOLETO  SOMENTE NA IMOBILIARIA                                                                                                                                                                   
0330001300353P 0134029null3null3  0000000056189512  10163          1011201600000000050145900000 04N06022019110112016000000000000165000000000000000000000000000000000000000000000000000000                         000101500           
0330001300354Q 012011124892000159ENF CARE OFFSHORE LTDA   ME             RUA JOSE SERPA FERRAZ  49 LT1466        CENTRO         24800000ITABORAI       RJ0000000000000000                                        000000000000                   
0330001300355R 01000000000000000000000000                        210112016000000000001000                                                                                                                                                       
0330001300356S 011014APOS 7 DIAS DO VENCIMENTO SUJEITO A PROTESTO                                                                                                                                                                               
0330001300357S 011024APOS O VENCIMENTO SERA COBRADO MULTA DE 10% E JUROS DE 1% A M                                                                                                                                                              
0330001300358S 011034APOS O VENCIMENTO SOMENTE NA REDE BANCARIA                                                                                                                                                                                 
0330001300359S 011044NAO RECEBER 30 (TRINTA) DIAS APOS O VENCIMENTO                                                                                                                                                                             
0330001300360S 011054APOS  EXPIRADO O PRAZO DO BOLETO  SOMENTE NA IMOBILIARIA                                                                                                                                                                   
0330001300361P 0134029null3null3  0000000056197512  10185          1011201600000000005593900000 04N06022019110112016000000000000018000000000000000000000000000000000000000000000000000000                         000101500           
0330001300362Q 011000014781097774ERIVELTON BRAGA FAGUNDES DA ROCHA       RUA F LT 63  00 QD07                    CABUCU         24800000ITABORAI       RJ0000000000000000                                        000000000000                   
0330001300363R 01000000000000000000000000                        210112016000000000001000                                                                                                                                                       
0330001300364S 011014APOS 7 DIAS DO VENCIMENTO SUJEITO A PROTESTO                                                                                                                                                                               
0330001300365S 011024APOS O VENCIMENTO SERA COBRADO MULTA DE 10% E JUROS DE 1% A M                                                                                                                                                              
0330001300366S 011034APOS O VENCIMENTO SOMENTE NA REDE BANCARIA                                                                                                                                                                                 
0330001300367S 011044NAO RECEBER 30 (TRINTA) DIAS APOS O VENCIMENTO                                                                                                                                                                             
0330001300368S 011054APOS  EXPIRADO O PRAZO DO BOLETO  SOMENTE NA IMOBILIARIA                                                                                                                                                                   
0330001300369P 0134029null3null3  0000000056200512  10235          1011201600000000010677500000 04N06022019110112016000000000000035000000000000000000000000000000000000000000000000000000                         000101500           
0330001300370Q 011000009837939727FABIANO PACHECO ALVES DE OLIVEIRA       RUA ARI PARREIRAS  361 CASA 5 FUNDOS    VENDA DAS PEDRA24800193ITABORAI       RJ0000000000000000                                        000000000000                   
0330001300371R 01000000000000000000000000                        210112016000000000001000                                                                                                                                                       
0330001300372S 011014APOS 7 DIAS DO VENCIMENTO SUJEITO A PROTESTO                                                                                                                                                                               
0330001300373S 011024APOS O VENCIMENTO SERA COBRADO MULTA DE 10% E JUROS DE 1% A M                                                                                                                                                              
0330001300374S 011034APOS O VENCIMENTO SOMENTE NA REDE BANCARIA                                                                                                                                                                                 
0330001300375S 011044NAO RECEBER 30 (TRINTA) DIAS APOS O VENCIMENTO                                                                                                                                                                             
0330001300376S 011054APOS  EXPIRADO O PRAZO DO BOLETO  SOMENTE NA IMOBILIARIA                                                                                                                                                                   
0330001300377P 0134029null3null3  0000000054755512  10305          1510201600000000014046100000 04N06022019115102016000000000000046000000000000000000000000000000000000000000000000000000                         000101500           
0330001300378Q 011000008390642760FABIO MORAES OLIVEIRA                   AV 22 DE MAIO  4845 SALA 120  ROSI      RIO VARZEA     24800000ITABORAI       RJ0000000000000000                                        000000000000                   
0330001300379R 01000000000000000000000000                        215102016000000000001000                                                                                                                                                       
0330001300380S 011014APOS 7 DIAS DO VENCIMENTO SUJEITO A PROTESTO                                                                                                                                                                               
0330001300381S 011024APOS O VENCIMENTO SERA COBRADO MULTA DE 10% E JUROS DE 1% A M                                                                                                                                                              
0330001300382S 011034APOS O VENCIMENTO SOMENTE NA REDE BANCARIA                                                                                                                                                                                 
0330001300383S 011044NAO RECEBER 30 (TRINTA) DIAS APOS O VENCIMENTO                                                                                                                                                                             
0330001300384S 011054APOS  EXPIRADO O PRAZO DO BOLETO  SOMENTE NA IMOBILIARIA                                                                                                                                                                   
0330001300385P 0134029null3null3  0000000056219512  10305          1511201600000000013818700000 04N06022019115112016000000000000045000000000000000000000000000000000000000000000000000000                         000101500           
0330001300386Q 011000008390642760FABIO MORAES OLIVEIRA                   AV 22 DE MAIO  4845 SALA 120  ROSI      RIO VARZEA     24800000ITABORAI       RJ0000000000000000                                        000000000000                   
0330001300387R 01000000000000000000000000                        215112016000000000001000                                                                                                                                                       
0330001300388S 011014APOS 7 DIAS DO VENCIMENTO SUJEITO A PROTESTO                                                                                                                                                                               
0330001300389S 011024APOS O VENCIMENTO SERA COBRADO MULTA DE 10% E JUROS DE 1% A M                                                                                                                                                              
0330001300390S 011034APOS O VENCIMENTO SOMENTE NA REDE BANCARIA                                                                                                                                                                                 
0330001300391S 011044NAO RECEBER 30 (TRINTA) DIAS APOS O VENCIMENTO                                                                                                                                                                             
0330001300392S 011054APOS  EXPIRADO O PRAZO DO BOLETO  SOMENTE NA IMOBILIARIA                                                                                                                                                                   
0330001300393P 0134029null3null3  0000000056227512  10268          0511201600000000039969800000 04N06022019105112016000000000000131000000000000000000000000000000000000000000000000000000                         000101500           
0330001300394Q 011000092527167772FAUSTINO ALONSO RODRIGUES               AV 22 DE MAIO  7430 LOTE B2 LOJA 1      VENDA DAS PEDRA24800000ITABORAI       RJ0000000000000000                                        000000000000                   
0330001300395R 01000000000000000000000000                        205112016000000000001000                                                                                                                                                       
0330001300396S 011014APOS 7 DIAS DO VENCIMENTO SUJEITO A PROTESTO                                                                                                                                                                               
0330001300397S 011024APOS O VENCIMENTO SERA COBRADO MULTA DE 10% E JUROS DE 1% A M                                                                                                                                                              
0330001300398S 011034APOS O VENCIMENTO SOMENTE NA REDE BANCARIA                                                                                                                                                                                 
0330001300399S 011044NAO RECEBER 30 (TRINTA) DIAS APOS O VENCIMENTO                                                                                                                                                                             
0330001300400S 011054APOS  EXPIRADO O PRAZO DO BOLETO  SOMENTE NA IMOBILIARIA                                                                                                                                                                   
0330001300401P 0134029null3null3  0000000049328512  10142          1006201600000000019934700000 04N06022019110062016000000000000065000000000000000000000000000000000000000000000000000000                         000101500           
0330001300402Q 011000009313843706FERNANDA CARVALHO CHRISTIANO SILVA GUIMARUA RUY DAMASCO  25 APT201              CENTRO         28800000RIO BONITO     RJ0000000000000000                                        000000000000                   
0330001300403R 01000000000000000000000000                        210062016000000000001000                                                                                                                                                       
0330001300404S 011014APOS 7 DIAS DO VENCIMENTO SUJEITO A PROTESTO                                                                                                                                                                               
0330001300405S 011024APOS O VENCIMENTO SERA COBRADO MULTA DE 10% E JUROS DE 1% A M                                                                                                                                                              
0330001300406S 011034APOS O VENCIMENTO SOMENTE NA REDE BANCARIA                                                                                                                                                                                 
0330001300407S 011044NAO RECEBER 30 (TRINTA) DIAS APOS O VENCIMENTO                                                                                                                                                                             
0330001300408S 011054APOS  EXPIRADO O PRAZO DO BOLETO  SOMENTE NA IMOBILIARIA                                                                                                                                                                   
0330001300409P 0134029null3null3  0000000050709512  10142          1007201600000000006578300000 04N06022019110072016000000000000021000000000000000000000000000000000000000000000000000000                         000101500           
0330001300410Q 011000009313843706FERNANDA CARVALHO CHRISTIANO SILVA GUIMARUA RUY DAMASCO  25 APT201              CENTRO         28800000RIO BONITO     RJ0000000000000000                                        000000000000                   
0330001300411R 01000000000000000000000000                        210072016000000000001000                                                                                                                                                       
0330001300412S 011014APOS 7 DIAS DO VENCIMENTO SUJEITO A PROTESTO                                                                                                                                                                               
0330001300413S 011024APOS O VENCIMENTO SERA COBRADO MULTA DE 10% E JUROS DE 1% A M                                                                                                                                                              
