H0000000001201501282013102320141023000010000010000001000000000000000000000000                                                                                                                                                                                                                                                                                                                                   
20000000002001000Ana Maria Ferreira Eca                                      000000007003605732001001R  Barreto Junior                                           134                                               Mutua                    Sao Goncalo              Rj24435350010196TAYNARA GAGLIANO VIEIRA                                     000000011820855716                                             
3000000000320131023Aluguel             0000057400111                                                                                                                                                                                                                                                                                                                                                            
3000000000420131023Agua                0000002277011                                                                                                                                                                                                                                                                                                                                                            
3000000000520131023IPTU                0000001348011                                                                                                                                                                                                                                                                                                                                                            
T000000000600000000010000000001000000000000000000010000000005                                                                                                                                                                                                                                                                                                                                                   
