H0000000001201606162016011620160816000020000009000000000000000000000000000000                                                                                                                                                                                                                                                                                                                                   
20000000002155000Maria Margarida de Souza Ferreira                           000000002231439794155003Rua Dr  Feliciano Sodre                                     182                      Sl 307                   Rodo                     Sao Goncalo              RJ24440440010456Abidinho dos Santos Veiga                                   000000038020912720                                             
3000000000320160116Aluguel             0000046957111                                                                                                                                                                                                                                                                                                                                                            
3000000000420160116IPTU                0000003560011                                                                                                                                                                                                                                                                                                                                                            
T000000000500000000010000000001000000000000000000010000000004                                                                                                                                                                                                                                                                                                                                                   
